:10F8000031408002B240805A2001C24302001E42B1
:10F81000FE10C24E56008E10C24E5700C243210049
:10F82000C2432200F2432700C2432E00C2432900F4
:10F83000C2432A00F2432F00F2C040002700F2C06A
:10F8400040002100F2D040002200D2C32700D2C3E2
:10F850002100D2D32200F2C030002200F2D03000CA
:10F860002100F2D0300027004A435B422000F2C062
:10F87000300021007BF0300002207A403000F2405E
:10F88000060058005E434E5EC2CE5800B2401A5A7F
:0EF890002001C2430200D2D3000032D0180083
:10FC0000F2D0300021004C4B5B422000F2C03000AB
:10FC100021007BF030004A9B1D204A9319244D4B54
:10FC20004DEC7D9020000920F2D040002100B01260
:10FC300056FCF2C0400021000B3C7D9010000720D4
:10FC4000D2D32100B01256FCD2C32100013C4D4357
:10FC50007AE0300000133E4028001E83FE2330412E
:02FFF40000FC0F
:02FFFE0000F809
:00000001FF
