:10F80000000031408002B240805A2001C243020011
:10F810001842FE10C24856008810C2485700C24322
:10F820002100C2432200F2432700C2432E00C243FC
:10F830002900C2432A00F2432F00F2C040002700F3
:10F84000F2C040002100F2D040002200D2C32700C5
:10F85000D2C32100D2D32200F2C030002200F2D065
:10F8600030002100F2D0300027004E434A435B4273
:10F870002000F2C0300021007BF0300002207A40EE
:10F880003000F2400600580058434858C2C858009B
:10F89000B2401A5A2001C2430200D2D3000032C241
:10F8A000494D4D4332D259930920F2D040002100F6
:10F8B000B012CEF8F2C040002100F13F7993EF235F
:10F8C000D2D32100B012CEF8D2C32100E83F394094
:08F8D00028001983FE233041DA
:10FC0000F2D0300021004C4B5B422000F2C03000AB
:10FC100021007BF030004A9B1D204D4B4DEC7D9028
:10FC2000200003205D435E53053C7D9010000E20B4
:10FC30007D435E83829300F80B204A9308246E93E1
:10FC400002204E43053C7E90FE00FB274E434D4371
:06FC50007AE03000001311
:02FFF40000FC0F
:02FFFE0002F807
:00000001FF
